{
  "contractName": "Lottery",
  "abi": [
    {
      "inputs": [
        {
          "name": "_owner",
          "type": "address"
        },
        {
          "name": "_winningRadius",
          "type": "uint256"
        },
        {
          "name": "_endTime",
          "type": "uint256"
        },
        {
          "name": "_maxLatitude",
          "type": "uint256"
        },
        {
          "name": "_minLatitude",
          "type": "uint256"
        },
        {
          "name": "_maxLongitude",
          "type": "uint256"
        },
        {
          "name": "_minLongitude",
          "type": "uint256"
        }
      ],
      "payable": false,
      "stateMutability": "nonpayable",
      "type": "constructor"
    },
    {
      "anonymous": false,
      "inputs": [
        {
          "indexed": false,
          "name": "emiter",
          "type": "address"
        },
        {
          "indexed": false,
          "name": "value",
          "type": "uint256"
        },
        {
          "indexed": false,
          "name": "longitude",
          "type": "uint256"
        },
        {
          "indexed": false,
          "name": "latitude",
          "type": "uint256"
        },
        {
          "indexed": false,
          "name": "joined",
          "type": "uint256"
        },
        {
          "indexed": false,
          "name": "couponId",
          "type": "uint256"
        }
      ],
      "name": "NewCoupon",
      "type": "event"
    },
    {
      "anonymous": false,
      "inputs": [
        {
          "indexed": false,
          "name": "couponId",
          "type": "uint256"
        },
        {
          "indexed": false,
          "name": "winner",
          "type": "address"
        },
        {
          "indexed": false,
          "name": "reward",
          "type": "uint256"
        }
      ],
      "name": "AwaitingWin",
      "type": "event"
    },
    {
      "anonymous": false,
      "inputs": [
        {
          "indexed": false,
          "name": "couponId",
          "type": "uint256"
        },
        {
          "indexed": false,
          "name": "winner",
          "type": "address"
        },
        {
          "indexed": false,
          "name": "reward",
          "type": "uint256"
        }
      ],
      "name": "Claimed",
      "type": "event"
    },
    {
      "constant": false,
      "inputs": [
        {
          "name": "_longitude",
          "type": "uint256"
        },
        {
          "name": "_latitude",
          "type": "uint256"
        }
      ],
      "name": "addNewCoupon",
      "outputs": [],
      "payable": true,
      "stateMutability": "payable",
      "type": "function"
    },
    {
      "constant": false,
      "inputs": [],
      "name": "endLottery",
      "outputs": [],
      "payable": false,
      "stateMutability": "nonpayable",
      "type": "function"
    },
    {
      "constant": false,
      "inputs": [
        {
          "name": "_couponId",
          "type": "uint256"
        }
      ],
      "name": "didWon",
      "outputs": [],
      "payable": false,
      "stateMutability": "nonpayable",
      "type": "function"
    },
    {
      "constant": false,
      "inputs": [
        {
          "name": "_couponId",
          "type": "uint256"
        }
      ],
      "name": "requestReward",
      "outputs": [],
      "payable": false,
      "stateMutability": "nonpayable",
      "type": "function"
    }
  ],
  "bytecode": "0x60806040526000805460ff1916600117905534801561001d57600080fd5b5060405160e080610bba83398101604090815281516020830151919092015160008054600160a060020a039094166101000261010060a860020a031990941693909317909255600355600155610b42806100786000396000f3006080604052600436106100615763ffffffff7c01000000000000000000000000000000000000000000000000000000006000350416631593a8c781146100665780639f5631181461007d578063d99380b41461008b578063e0618f49146100a3575b600080fd5b34801561007257600080fd5b5061007b6100bb565b005b61007b60043560243561015e565b34801561009757600080fd5b5061007b6004356103bc565b3480156100af57600080fd5b5061007b6004356106f4565b6001546000904211610117576040805160e560020a62461bcd02815260206004820152601760248201527f4c6f7474657279206973207374696c6c20616374697665000000000000000000604482015290519081900360640190fd5b506000805460ff1916815560095460085461013391908361097b565b60045560075460065460019092019161014d91908361097b565b600555610158610a27565b60025550565b6000600160005460ff16600181111561017357fe5b146101c8576040805160e560020a62461bcd02815260206004820152601560248201527f4c6f7474657279206973206e6f74206163746976650000000000000000000000604482015290519081900360640190fd5b6040805160e081018252848152602081018481523392820192835234606083019081524260808401908152600060a0850181815260c08601829052600a805460018082018084559290945287517fc65a7bb8d6351c1cf70c95a316cc6a92839c986682d98bc35f958f4883f9d2a8600790920291820190815596517fc65a7bb8d6351c1cf70c95a316cc6a92839c986682d98bc35f958f4883f9d2a982015597517fc65a7bb8d6351c1cf70c95a316cc6a92839c986682d98bc35f958f4883f9d2aa8901805473ffffffffffffffffffffffffffffffffffffffff191673ffffffffffffffffffffffffffffffffffffffff90921691909117905593517fc65a7bb8d6351c1cf70c95a316cc6a92839c986682d98bc35f958f4883f9d2ab88015591517fc65a7bb8d6351c1cf70c95a316cc6a92839c986682d98bc35f958f4883f9d2ac87015590517fc65a7bb8d6351c1cf70c95a316cc6a92839c986682d98bc35f958f4883f9d2ad9095018054929592909160ff199091169083600381111561034f57fe5b021790555060c091820151600690910155604080513381523460208201528082018790526060810186905242608082015260a0810184905290519293507f0839a6758ee0b5aa523914cae45478b8456f9e5ab47bf77c939641e536f69d4d929081900390910190a1505050565b6001544211610415576040805160e560020a62461bcd02815260206004820152601760248201527f4c6f7474657279206973207374696c6c20616374697665000000000000000000604482015290519081900360640190fd5b600a548190600019018110610474576040805160e560020a62461bcd02815260206004820152601660248201527f436f75706f6e20646f6573206e6f727420657869737400000000000000000000604482015290519081900360640190fd5b600a8054839133918390811061048657fe5b600091825260209091206002600790920201015473ffffffffffffffffffffffffffffffffffffffff161461052b576040805160e560020a62461bcd02815260206004820152603460248201527f546869732066756e6374696f6e2063616e2062652063616c6c6564206a75737460448201527f2062792074686520636f75706f6e206f776e6572000000000000000000000000606482015290519081900360840190fd5b826002600a80548390811061053c57fe5b600091825260209091206005600790920201015460ff16600381111561055e57fe5b146105b3576040805160e560020a62461bcd02815260206004820152601a60248201527f436f75706f6e206e6565647320746f20626520636c61696d6564000000000000604482015290519081900360640190fd5b3373ffffffffffffffffffffffffffffffffffffffff166108fc6014600a878154811015156105de57fe5b9060005260206000209060070201600601546013028115156105fc57fe5b049081150290604051600060405180830381858888f19350505050158015610628573d6000803e3d6000fd5b507ffda90987bf40d9280be06c911745401b83d14c449501845a04e3faebb691a70d84600a8681548110151561065a57fe5b906000526020600020906007020160020160009054906101000a900473ffffffffffffffffffffffffffffffffffffffff166014600a8881548110151561069d57fe5b9060005260206000209060070201600601546013028115156106bb57fe5b6040805194855273ffffffffffffffffffffffffffffffffffffffff90931660208501520482820152519081900360600190a150505050565b60008060008060015442111515610755576040805160e560020a62461bcd02815260206004820152601760248201527f4c6f7474657279206973207374696c6c20616374697665000000000000000000604482015290519081900360640190fd5b600a5485906000190181106107b4576040805160e560020a62461bcd02815260206004820152601660248201527f436f75706f6e20646f6573206e6f727420657869737400000000000000000000604482015290519081900360640190fd5b600a8054879081106107c257fe5b906000526020600020906007020160010154600554039450600a868154811015156107e957fe5b90600052602060002090600702016000015460045403935061081084850286870201610adb565b9250600354831015610935576002600a8781548110151561082d57fe5b60009182526020909120600560079092020101805460ff1916600183600381111561085457fe5b0217905550600254606402600a8781548110151561086e57fe5b90600052602060002090600702016003015460640281151561088c57fe5b04915081600a8781548110151561089f57fe5b9060005260206000209060070201600601819055507ffda90987bf40d9280be06c911745401b83d14c449501845a04e3faebb691a70d86600a888154811015156108e557fe5b6000918252602091829020600260079092020101546040805193845273ffffffffffffffffffffffffffffffffffffffff90911691830191909152818101859052519081900360600190a1610973565b6001600a8781548110151561094657fe5b60009182526020909120600560079092020101805460ff1916600183600381111561096d57fe5b02179055505b505050505050565b6000804244846040516020018084815260200183815260200182815260200193505050506040516020818303038152906040526040518082805190602001908083835b602083106109dd5780518252601f1990920191602091820191016109be565b5181516000196020949094036101000a939093019283169219169190911790526040519201829003909120935050505084840360010181811515610a1d57fe5b0695945050505050565b600080808080805b600a54841015610ad157600a805485908110610a4757fe5b906000526020600020906007020160010154600554039250600a84815481101515610a6e57fe5b906000526020600020906007020160000154600454039150610a9582830284850201610adb565b9050600354811015610ac657600a805485908110610aaf57fe5b906000526020600020906007020160030154850194505b600190930192610a2f565b5092949350505050565b80600260018201045b81811015610b10578091506002818285811515610afd57fe5b0401811515610b0857fe5b049050610ae4565b509190505600a165627a7a72305820ff2da3b49f2e4264efbb511378d1d6a686bf734eef92186835dab969db7b3f490029",
  "source": "pragma solidity ^0.4.24;\n\ncontract Lottery {\n    enum CouponState { Pending, Lost, AwaitingClaim, Claimed }\n    enum LotteryState { Finished, Active }\n    LotteryState state = LotteryState.Active;\n    address owner;\n    uint endTime;\n\n    uint depositsInWinningArea;\n\n    uint winningRadius;\n\n    uint winningLongitude;\n    uint winningLatitude;\n\n    uint maxLatitude;\n    uint minLatitude;\n\n    uint maxLongitude;\n    uint minLongitude;\n\n    Coupon[] coupons;\n\n    // Structs\n\n    struct Coupon {\n        uint longitude;\n        uint latitude;\n\n        address emiter;\n\n        uint value;\n\n        uint timestamp;\n\n        CouponState state;\n\n        uint reward;\n    }\n\n    // Events\n\n    event NewCoupon(\n        address emiter,\n        uint value,\n        uint longitude,\n        uint latitude,\n        uint joined,\n        uint couponId\n    );\n\n    event AwaitingWin(\n        uint couponId,\n        address winner,\n        uint reward\n    );\n\n    event Claimed(\n        uint couponId,\n        address winner,\n        uint reward\n    );\n\n    // Modifiers\n\n    modifier isFinished() {\n        require(now > endTime, \"Lottery is still active\");\n        _;\n    }\n\n    modifier isActive() {\n        require(state == LotteryState.Active, \"Lottery is not active\");\n        _;\n    }\n\n    modifier couponExists(uint _couponId) {\n        require(coupons.length - 1 > _couponId, \"Coupon does nort exist\");\n        _;\n    }\n\n    modifier isCouponOwner(uint _couponId) {\n        require(coupons[_couponId].emiter == msg.sender, \"This function can be called just by the coupon owner\");\n        _;\n    }\n\n    modifier couponAwaiting(uint _couponId) {\n        require(coupons[_couponId].state == CouponState.AwaitingClaim, \"Coupon needs to be claimed\");\n        _;\n    }\n\n    // Methods\n\n    constructor(\n        address _owner, \n        uint _winningRadius, \n        uint _endTime, \n        uint _maxLatitude, \n        uint _minLatitude, \n        uint _maxLongitude, \n        uint _minLongitude) \n        public \n    {\n        owner = _owner;\n        winningRadius = _winningRadius;\n        endTime = _endTime;\n    }\n\n    function addNewCoupon(uint _longitude, uint _latitude) public payable\n    isActive()\n    {\n        uint couponId = coupons.push(Coupon({\n            longitude: _longitude,\n            latitude: _latitude,\n            emiter: msg.sender,\n            timestamp: now,\n            state: CouponState.Pending,\n            value: msg.value,\n            reward: 0\n        }));\n\n        emit NewCoupon(\n            msg.sender,\n            msg.value,\n            _longitude,\n            _latitude,\n            now,\n            couponId\n        );\n    }\n\n    function endLottery() public \n    isFinished()\n    {\n        state = LotteryState.Finished;\n        uint nonce = 0;\n        winningLongitude = randomInRange(minLongitude ,maxLongitude, nonce);\n        nonce++;\n        winningLatitude = randomInRange(minLatitude ,maxLatitude, nonce);\n        depositsInWinningArea = countDepositsInWinningArea();\n    }\n\n    function didWon(uint _couponId) public\n    isFinished()\n    couponExists(_couponId)\n    {\n        int latSub = int(winningLatitude) - int(coupons[_couponId].latitude);\n        int longSub = int(winningLongitude) - int(coupons[_couponId].longitude);\n\n        uint distance = sqrt(uint((latSub * latSub) + (longSub * longSub)));\n\n        if(distance < winningRadius) {\n            coupons[_couponId].state = CouponState.AwaitingClaim;\n            uint reward = (coupons[_couponId].value*100)/(depositsInWinningArea*100);\n            coupons[_couponId].reward = reward;\n            emit AwaitingWin(_couponId, coupons[_couponId].emiter, reward);\n        } else {\n            coupons[_couponId].state = CouponState.Lost;\n        }\n    }\n\n    function requestReward(uint _couponId) public\n    isFinished()\n    couponExists(_couponId)\n    isCouponOwner(_couponId)\n    couponAwaiting(_couponId)\n    {\n        msg.sender.transfer(coupons[_couponId].reward * 19/20);\n        emit AwaitingWin(_couponId, coupons[_couponId].emiter, coupons[_couponId].reward * 19/20);\n    }\n\n    function countDepositsInWinningArea() internal returns(uint) {\n        uint result;\n        for(uint i = 0; i < coupons.length; i++) {\n            int latSub = int(winningLatitude) - int(coupons[i].latitude);\n            int longSub = int(winningLongitude) - int(coupons[i].longitude);\n\n            uint distance = sqrt(uint((latSub * latSub) + (longSub * longSub)));\n\n            if(distance < winningRadius) {\n                result += coupons[i].value;\n            }\n        }\n        return result;\n    }\n\n    function randomInRange(uint min, uint max, uint nonce) internal returns(uint) {\n        uint rand = uint256(keccak256(abi.encodePacked(block.timestamp, block.difficulty, nonce)));\n        return uint(rand % (max - min + 1));\n    }\n\n    function sqrt(uint x) private view returns (uint y) {\n        uint z = (x + 1) / 2;\n        y = x;\n        while (z < y) {\n            y = z;\n            z = (x / z + z) / 2;\n        }\n    }\n\n}",
  "sourcePath": "/Users/marcello/Projects/Hackathons/HackYeah/Contract/contracts/Lottery.sol",
  "compiler": {
    "name": "solc",
    "version": "0.4.24+commit.e67f0147.Emscripten.clang"
  },
  "schemaVersion": "2.0.1",
  "updatedAt": "2018-11-25T04:58:57.144Z"
}