{
  "contractName": "Lottery",
  "abi": [
    {
      "inputs": [
        {
          "name": "_owner",
          "type": "address"
        }
      ],
      "payable": false,
      "stateMutability": "nonpayable",
      "type": "constructor"
    },
    {
      "anonymous": false,
      "inputs": [
        {
          "indexed": false,
          "name": "region",
          "type": "bytes32"
        },
        {
          "indexed": false,
          "name": "latitudeMin",
          "type": "uint16"
        },
        {
          "indexed": false,
          "name": "latitudeMax",
          "type": "uint16"
        },
        {
          "indexed": false,
          "name": "longitudeMin",
          "type": "uint16"
        },
        {
          "indexed": false,
          "name": "longitudeMax",
          "type": "uint16"
        },
        {
          "indexed": false,
          "name": "minDeposit",
          "type": "uint256"
        },
        {
          "indexed": false,
          "name": "maxLocationsNumber",
          "type": "uint64"
        },
        {
          "indexed": false,
          "name": "startedOn",
          "type": "uint256"
        },
        {
          "indexed": false,
          "name": "endsOn",
          "type": "uint256"
        },
        {
          "indexed": false,
          "name": "winningAreaRadius",
          "type": "uint16"
        },
        {
          "indexed": false,
          "name": "lotteryId",
          "type": "uint256"
        }
      ],
      "name": "LotteryCreation",
      "type": "event"
    },
    {
      "anonymous": false,
      "inputs": [
        {
          "indexed": false,
          "name": "lotteryId",
          "type": "uint256"
        },
        {
          "indexed": false,
          "name": "latitude",
          "type": "uint16"
        },
        {
          "indexed": false,
          "name": "longitude",
          "type": "uint16"
        },
        {
          "indexed": false,
          "name": "deposit",
          "type": "uint256"
        },
        {
          "indexed": false,
          "name": "when",
          "type": "uint256"
        },
        {
          "indexed": false,
          "name": "participationId",
          "type": "uint256"
        }
      ],
      "name": "LotteryJoin",
      "type": "event"
    },
    {
      "constant": false,
      "inputs": [
        {
          "name": "_region",
          "type": "bytes32"
        },
        {
          "name": "_latitudeMin",
          "type": "uint16"
        },
        {
          "name": "_latitudeMax",
          "type": "uint16"
        },
        {
          "name": "_longitudeMin",
          "type": "uint16"
        },
        {
          "name": "_longitudeMax",
          "type": "uint16"
        },
        {
          "name": "_minDeposit",
          "type": "uint256"
        },
        {
          "name": "_maxLocationsNumber",
          "type": "uint32"
        },
        {
          "name": "_endTime",
          "type": "uint256"
        },
        {
          "name": "_winningAreaRadius",
          "type": "uint16"
        }
      ],
      "name": "createNewLottery",
      "outputs": [],
      "payable": false,
      "stateMutability": "nonpayable",
      "type": "function"
    },
    {
      "constant": false,
      "inputs": [
        {
          "name": "_lotteryId",
          "type": "uint256"
        },
        {
          "name": "_lat",
          "type": "uint16"
        },
        {
          "name": "_long",
          "type": "uint16"
        }
      ],
      "name": "joinLottery",
      "outputs": [],
      "payable": true,
      "stateMutability": "payable",
      "type": "function"
    }
  ],
  "bytecode": "0x608060405234801561001057600080fd5b506040516020806109fd833981016040525160008054600160a060020a03909216600160a060020a03199092169190911790556109ab806100526000396000f30060806040526004361061004b5763ffffffff7c010000000000000000000000000000000000000000000000000000000060003504166354390325811461005057806355f9273c1461009c575b600080fd5b34801561005c57600080fd5b5061009a60043561ffff60243581169060443581169060643581169060843581169060a4359063ffffffff60c435169060e4359061010435166100b4565b005b61009a60043561ffff60243581169060443516610462565b6000805473ffffffffffffffffffffffffffffffffffffffff16331461014a576040805160e560020a62461bcd02815260206004820152602c60248201527f4f6e6c792074686520636f6e7472616374206f776e65722063616e2063616c6c60448201527f2074686973206d6574686f640000000000000000000000000000000000000000606482015290519081900360840190fd5b604080516101c08101909152600190808281526020014281526020018581526020018663ffffffff16815260200187815260200160006040519080825280602002602001820160405280156101a9578160200160208202803883390190505b50815261ffff808d166020808401919091528c821660408401528b821660608401528a8216608084015260a083018f905290861660c0830152600060e08301819052610100909201829052835460018181018087559584529190922083516009909302018054909291839160ff191690838181111561022457fe5b0217905550602082810151600183015560408301516002830155606083015160038301805463ffffffff191663ffffffff9092169190911790556080830151600483015560a0830151805161027f92600585019201906108cc565b5060c08201518160060160006101000a81548161ffff021916908361ffff16021790555060e08201518160060160026101000a81548161ffff021916908361ffff1602179055506101008201518160060160046101000a81548161ffff021916908361ffff1602179055506101208201518160060160066101000a81548161ffff021916908361ffff16021790555061014082015181600701906000191690556101608201518160080160006101000a81548161ffff021916908361ffff1602179055506101808201518160080160026101000a81548161ffff021916908361ffff1602179055506101a08201518160080160046101000a81548161ffff021916908361ffff160217905550505090507f5be842e7f8aa58d7c519268948673a0817cf4d7fd091b0ab2e963e27941f79a38a8a8a8a8a8a8a428b8b8b604051808c600019166000191681526020018b61ffff1661ffff1681526020018a61ffff1661ffff1681526020018961ffff1661ffff1681526020018861ffff1661ffff1681526020018781526020018663ffffffff1667ffffffffffffffff1681526020018581526020018481526020018361ffff1661ffff1681526020018281526020019b50505050505050505050505060405180910390a150505050505050505050565b6001546000908490600019018111156104eb576040805160e560020a62461bcd02815260206004820152602860248201527f4c6f747465727920776974682074686520676976656e20494420646f6573206e60448201527f6f74206578697374000000000000000000000000000000000000000000000000606482015290519081900360840190fd5b846001808054839081106104fb57fe5b600091825260209091206009909102015460ff16600181111561051a57fe5b14801561054657504260018281548110151561053257fe5b906000526020600020906009020160020154115b15156105c2576040805160e560020a62461bcd02815260206004820152602860248201527f4c6f747465727920776974682074686520676976656e20494420646f6573206e60448201527f6f74206578697374000000000000000000000000000000000000000000000000606482015290519081900360840190fd5b856001818154811015156105d257fe5b600091825260209091206005600990920201015460018054839081106105f457fe5b600091825260209091206003600990920201015463ffffffff161015610664576040805160e560020a62461bcd02815260206004820152600f60248201527f4c6f74746572792069732066756c6c0000000000000000000000000000000000604482015290519081900360640190fd5b8660018181548110151561067457fe5b906000526020600020906009020160040154341015151561072b576040805160e560020a62461bcd02815260206004820152604760248201527f546865207472616e73616374696f6e20616d6f756e74206e6565647320746f2060448201527f626520686967686572207468616e207468652067616d65206d696e696d756d2060648201527f6465706f73697400000000000000000000000000000000000000000000000000608482015290519081900360a40190fd5b600260c0604051908101604052803373ffffffffffffffffffffffffffffffffffffffff1681526020013481526020014281526020018861ffff1681526020018961ffff1681526020018a8152509080600181540180825580915050906001820390600052602060002090600502016000909192909190915060008201518160000160006101000a81548173ffffffffffffffffffffffffffffffffffffffff021916908373ffffffffffffffffffffffffffffffffffffffff160217905550602082015181600101556040820151816002015560608201518160030160006101000a81548161ffff021916908361ffff16021790555060808201518160030160026101000a81548161ffff021916908361ffff16021790555060a08201518160040155505094507fc023a3ca7c293474d852c92420e9ac27c5c0a79fa56ff39cd1527b2e2e120ed588888834428a604051808781526020018661ffff1661ffff1681526020018561ffff1661ffff168152602001848152602001838152602001828152602001965050505050505060405180910390a15050505050505050565b82805482825590600052602060002090810192821561093b579160200282015b8281111561093b578251825473ffffffffffffffffffffffffffffffffffffffff191673ffffffffffffffffffffffffffffffffffffffff9091161782556020909201916001909101906108ec565b5061094792915061094b565b5090565b61097c91905b8082111561094757805473ffffffffffffffffffffffffffffffffffffffff19168155600101610951565b905600a165627a7a7230582099f749bebc9e1e14fdabc6fbab93242d4f1899c84d805d91d57116e6598682820029",
  "source": "pragma solidity ^0.4.24;\n\ncontract Lottery {\n    // Fields\n    address owner;\n    LotteryGame[] lotteries;\n    Participation[] participations;\n\n    // Enums\n    enum LotteryStatus { Finished, Active }\n\n    // Structs\n\n    struct Participation {\n        address participant;\n        uint deposit;\n        uint joinedOn;\n\n        uint16 longitude;\n        uint16 latitude;\n\n        uint lotteryId;\n    }\n\n    struct LotteryGame {\n        LotteryStatus status;\n\n        uint launchedOn;\n        uint finishesOn;\n\n        uint32 maxLocationsNumber;\n        uint minDeposit;\n\n        address[] participants;\n\n        // Lottery region params\n        uint16 latitudeMin;\n        uint16 latitudeMax;\n        uint16 longitudeMin;\n        uint16 longitudeMax;\n\n        bytes32 region;\n\n        uint16 winningAreaRadius;\n\n        uint16 winningLat;\n        uint16 winningLong;\n    }\n\n    // modifiers\n\n    modifier onlyOwner() {\n        require(msg.sender == owner, \"Only the contract owner can call this method\");\n        _;\n    }\n\n    modifier lotteryExists(uint _lotteryId) {\n        require(lotteries.length - 1 >= _lotteryId, \"Lottery with the given ID does not exist\");\n        _;\n    }\n\n    modifier lotteryIsActive(uint _lotteryId) {\n        require(lotteries[_lotteryId].status == LotteryStatus.Active && lotteries[_lotteryId].finishesOn > now, \"Lottery with the given ID does not exist\");\n        _;\n    }\n\n    modifier lotteryIsNotFull(uint _lotteryId) {\n        require(lotteries[_lotteryId].maxLocationsNumber >= lotteries[_lotteryId].participants.length, \"Lottery is full\");\n        _;\n    }\n\n    modifier enoughDeposit(uint _lotteryId) {\n        require(msg.value >= lotteries[_lotteryId].minDeposit, \"The transaction amount needs to be higher than the game minimum deposit\");\n        _;\n    }\n\n    // Events\n\n    event LotteryCreation(\n        bytes32 region, \n        uint16 latitudeMin, \n        uint16 latitudeMax, \n        uint16 longitudeMin, \n        uint16 longitudeMax, \n        uint minDeposit, \n        uint64 maxLocationsNumber, \n        uint startedOn, \n        uint endsOn,\n        uint16 winningAreaRadius,\n        uint lotteryId\n    );\n \n    event LotteryJoin(\n        uint lotteryId,\n        uint16 latitude,\n        uint16 longitude,\n        uint deposit,\n        uint when,\n        uint participationId\n    );\n\n    // Methods\n\n    constructor(address _owner) public {\n        owner = _owner;\n    }\n\n    function createNewLottery(\n        bytes32 _region,\n        uint16 _latitudeMin,\n        uint16 _latitudeMax,\n        uint16 _longitudeMin,\n        uint16 _longitudeMax,\n        uint _minDeposit, \n        uint32 _maxLocationsNumber,\n        uint _endTime, \n        uint16 _winningAreaRadius\n        ) public onlyOwner() {\n\n        uint lotteryId = lotteries.push(LotteryGame({\n            status: LotteryStatus.Active,\n            launchedOn: now,\n            finishesOn: _endTime,\n            maxLocationsNumber: _maxLocationsNumber,\n            minDeposit: _minDeposit,\n            latitudeMin: _latitudeMin,\n            latitudeMax: _latitudeMax,\n            longitudeMin: _longitudeMin,\n            longitudeMax: _longitudeMax,\n            winningAreaRadius: _winningAreaRadius,\n            participants: new address[](0),\n            region: _region,\n            winningLat: 0,\n            winningLong: 0\n        }));\n\n        emit LotteryCreation(\n            _region,\n            _latitudeMin,\n            _latitudeMax,\n            _longitudeMin,\n            _longitudeMax,\n            _minDeposit,\n            _maxLocationsNumber,\n            now,\n            _endTime,\n            _winningAreaRadius,\n            lotteryId);\n    }\n\n    function joinLottery(uint _lotteryId, uint16 _lat, uint16 _long) public payable\n    lotteryExists(_lotteryId)\n    lotteryIsActive(_lotteryId)\n    lotteryIsNotFull(_lotteryId)\n    enoughDeposit(_lotteryId)\n    {\n        uint participationId = participations.push(Participation({\n            participant: msg.sender,\n            deposit: msg.value,\n            joinedOn: now,\n            longitude: _long,\n            latitude: _lat,\n            lotteryId: _lotteryId \n        }));\n\n        emit LotteryJoin(\n            _lotteryId,\n            _lat,\n            _long,\n            msg.value,\n            now,\n            participationId\n        );\n    }\n\n    function randomInRange(uint16 min, uint16 max) internal returns(uint16) {\n        uint rand = uint256(keccak256(abi.encodePacked(block.timestamp, block.difficulty)));\n        return uint16(rand % (max - min + 1));\n    }\n}",
  "sourcePath": "/Users/marcello/Projects/Hackathons/HackYeah/Contract/contracts/Lottery.sol",
  "compiler": {
    "name": "solc",
    "version": "0.4.24+commit.e67f0147.Emscripten.clang"
  },
  "schemaVersion": "2.0.1",
  "updatedAt": "2018-11-25T01:41:26.651Z"
}